:020000040800F2
:10000000D80E002091760008B1760008B576000879
:10001000B9760008BD760008C1760008000000002F
:10002000000000000000000000000000C57600088D
:10003000C976000800000000CD7600085B59000872
:10004000D1760008D5760008D9760008DD7600085C
:10005000E1760008E5760008E9760008ED7600080C
:10006000F1760008F5760008F9760008FD760008BC
:100070000177000805770008097700080D77000868
:100080001177000815770008197700081D77000818
:100090002177000825770008297700082D770008C8
:1000A0003177000835770008397700083D77000878
:1000B000695900084177000845770008497700082A
:1000C0004D7700086F5900085177000875590008EE
:1000D000557700087B590008597700085D770008BC
:1000E0006177000865770008697700086D77000878
:1000F0007177000875770008797700087D77000828
:100100008177000885770008897700088D770008D7
:10011000B7590008FD590008917700089577000845
:10012000997700089D770008A1770008A577000857
:100130002DE9F04F80460FF21C60A5B017461D4612
:10014000D0E90023CDE91223002004910D900DF198
:10015000500A6FF0004900E0E7190020ADF80200F6
:1001600012AB4FF0FF3239460DF1020001F08BF86F
:100170000446012C04DA3878441EA441E443E40F19
:10018000BDF8020025280CBFA4F1010BA346BBF16A
:10019000010F0EDB3E4616F8011B0498C0470028ED
:1001A000049000F0D2820D98401CBBF1010B0D9021
:1001B000F1D1BDF80200252807D100200790089052
:1001C00009900A900B900C9005E00028C4D10D987E
:1001D000BDE240F0010017F8011F2029F9D02329C2
:1001E0000DD02B2904D02D2906D030290AD00CE0BF
:1001F00040F0020080B2EEE740F00400FAE740F081
:100200000800F7E740F01000F4E72A290ED129682A
:10021000296051F8042B2960002A0F9204D551421D
:1002200040F004000F9180B27F1C11E000210F917B
:1002300009E00F99494505D001EB810302EB430129
:1002400030390F917F1C3A78A2F130010A29F0D39E
:1002500039782E2903D04FF0FF310E911DE017F8A9
:10026000011F2A2907D1296829607F1C51F8042B16
:1002700029600E9211E000210E9109E00E99494586
:1002800005D001EB810302EB430130390E917F1C55
:100290003A78A2F130010A29F0D3ADF840000FF20C
:1002A000BC40397801F00EF808B117F8010B8DF851
:1002B00042009DF84200682802BF39786829622010
:1002C00005D06C2804BF38786C2803D171208DF8D4
:1002D00042007F1C14A8069017F8014BB4F12500CA
:1002E0002AD01C3800F0CB80001F022840F2C780C3
:1002F000133800F0EC80093800F0C180801E00F057
:100300005381401E00F02C81401E022840F2B7802D
:10031000001F00F02581401F00F08280401E00F089
:10032000D680401E2CD0C01E0BD0801E00F0CF8087
:10033000C01E00F0CC805AE125208DF8500001202D
:100340005EE19DF842006C282868286014D050F8BF
:10035000046B286005960E9C002C04D5304600F0F6
:10036000C9FF044606E022460021304600F0E2FFC5
:1003700000B1841B089444E150F8042B28602FE15D
:10038000296829603C2451F8040B29600021CDE93B
:10039000020114A80590DDE90201069E11B908B911
:1003A0000E9AB2B10206120FA0EB02123032D2B294
:1003B000631E3A2AA8BF2732000940EA01700909E2
:1003C0009A5508BF00281C4603D0059AA3199A42E3
:1003D000E8D3A0190590C4F13C010E980891814220
:1003E00009DA401A0A904FF6EF71BDF84000084054
:1003F000ADF8400005E1002840F103819DF8400080
:1004000000F01400102840F0FC800F98079A801A22
:100410000A9A801A441A012CC0F2F3800A94F0E080
:100420009DF8420062281AD0682806D06A280CD0AD
:100430006C281CD0712808D019E02868286050F872
:10044000041B28600D980880DBE02868286050F8BD
:10045000042B28600D98C117C2E90001D1E028687B
:10046000286050F8041B28600D980870C9E02868BF
:10047000286050F8041B28600D980860C1E02868C7
:10048000C01D20F007022A60D2E9000108322A606C
:10049000CDE90201002902D507982D210AE0BDF817
:1004A0004000810702D507982B2103E0C00705D53E
:1004B0000798202100F80A10401C079014A80799FB
:1004C00008180590214602A800F090FB99E09DF8DD
:1004D00042006C280DD0712818BF6A2809D12868FD
:1004E000C01D20F007022A60D2E9000108322A600C
:1004F00005E02968296051F8040B29600021CDE945
:1005000002019DF84200682803D1DDE9020180B2B2
:100510000BE0622803D1DDE90201C0B205E07428D6
:1005200018BF7A2804D1DDE902010021CDE90201DA
:100530009DF8400000072ED5DDE90201002908BF23
:10054000002828D044F02000782824D107983021B2
:1005500000F80A10401C411C079100F80A401AE0FC
:100560009DF84200294600F0FDF8CDE9020100297E
:1005700002DA07982D210AE0BDF84000810702D574
:1005800007982B2103E0C00705D50798202100F824
:100590000A10401C079014A80799081805902146D6
:1005A00002A800F09FFA2CE09DF842006C2809D0C8
:1005B000012007902868286050F8041B28608DF8F7
:1005C00050101EE02868286001AA50F8041B28601B
:1005D000ADF804100020ADF806004FF0FF300E908B
:1005E00002A9404600F0F5F800280AD5ADE0252024
:1005F0008DF85000012007901CB18AF801400220BC
:1006000007900F980799401A0A99401A0899401ABA
:100610000B99401A0999401A0C99441A9DF8400008
:10062000400710D420208DF80000002609E00123A7
:1006300000AA02A9404600F001FE002840F0858093
:10064000761CA642F3DB079E0DF1500B0AE01BF867
:10065000011B0498C0470028049076D00D98401CD8
:100660000D90761E002EF2D130208DF800004FF054
:10067000000B0A9E09E0012300AA02A9404600F0EF
:10068000DDFD002861D10BF1010BB345F3DB089EC2
:10069000DDF814B00AE01BF8011B0498C0470028DD
:1006A000049052D00D98401C0D90761E002EF2D171
:1006B00030208DF800004FF0000B0B9E09E0012365
:1006C00000AA02A9404600F0B9FD00283DD10BF177
:1006D000010BB345F3DB05980899099E01EB000B6C
:1006E00009E01BF8011B0498C047049068B30D98FB
:1006F000401C0D90761E002EF3D130208DF80000A6
:100700004FF0000B0C9E08E0012300AA02A940460E
:1007100000F094FDC8B90BF1010BB345F4DB9DF873
:10072000400040077FF519AD20208DF8000000261D
:1007300000E0761CA642BFF610AD012300AA02A974
:10074000404600F07BFD0028F3D04FF0FF3025B08D
:10075000BDE8F08F0000000000000000686A6C74C3
:100760007A4C0000622826D068281DD06A2808D05C
:100770006C2827D0712804D0742823D07A280CD074
:1007800020E00868C01D20F007000860D0E90023C1
:10079000083008601946104670470A680A6052F827
:1007A000040B0A60002170470A680A6052F8040BC3
:1007B0000A6000B20BE00A680A6052F8040B0A6093
:1007C00040B204E00A680A6052F8040B0A60C117DC
:1007D00070472DE9F44F0D4694B0D5F830B0BBF119
:1007E000000F804648BF6FF0004B00F0CFFD696BF3
:1007F000401801900FF67420D0E90023CDE90223C0
:1008000095F83800400702D40198412806D24020CC
:100810000DF1100A01904FF0000909E000F0BCFD55
:100820005FEA000AF7D14FF0FF3058E1ABEB040B61
:10083000BBF1010FC0F2CD801498018802AA0DF11E
:10084000010000F001FE0028044600F1D580149854
:10085000008810B9641E00F1CF80A345C0F2B980B2
:10086000686901992218914280F0A180296AC5F82F
:1008700034904042401AA969401A696A401AE969ED
:10088000401AA96AA0EB010995F83800400710D476
:1008900020208DF80000002609E0012300AA294647
:1008A000404600F0CBFC002840F0A680761C4E4568
:1008B000F3DB6E6957460BE017F8011BA868C047C9
:1008C0000028A86000F09880E86A401CE862761E64
:1008D000002EF1D130208DF8000000272E6A09E0AB
:1008E000012300AA2946404600F0A8FC002840F059
:1008F00083807F1CB742F3DBAE69EF680AE017F82C
:10090000011BA868C0470028A86075D0E86A401C91
:10091000E862761E002EF2D130208DF8000000270C
:100920006E6A08E0012300AA2946404600F086FCD2
:10093000002861D17F1CB742F4DBE868A969EE6941
:100940000F180AE017F8011BA868C0470028A86024
:1009500052D0E86A401CE862761E002EF2D13020A8
:100960008DF800000027AE6A08E0012300AA29469E
:10097000404600F063FC00283ED17F1CB742F4DB08
:1009800095F8380040070ED520208DF8000000268D
:1009900007E0012300AA2946404600F04FFC58BB5F
:1009A000761C4E45F5DB4FF00009C5F81490224641
:1009B00068690DF10101504400F054FD6869201888
:1009C00068611498801C1490801E008800287FF4B1
:1009D0002DAF686B6969401A296A401AA969401AE3
:1009E000696A401AE969401AA96A471A95F83800F5
:1009F000400710D400240CE04FF0FF3968E0A868ED
:100A00002021C0470028A860F6D0E86A401CE862B0
:100A1000641CBC42F3DB6B6952462946404600F039
:100A20000DFC0028E8D12C6A002609E0A8683021D6
:100A3000C0470028A860DFD0E86A401CE862761C46
:100A4000A642F3DBAB69EA682946404600F0F6FBB4
:100A50000028D1D16C6A002609E0A8683021C0477F
:100A60000028A860C8D0E86A401CE862761CA6424C
:100A7000F3DBE868A969EB690A182946404600F0EB
:100A8000DDFB0028B8D1AC6A002609E0A868302157
:100A9000C0470028A860AFD0E86A401CE862761C16
:100AA000A642F3DB95F8380040070DD5002409E095
:100AB000A8682021C0470028A8609DD0E86A401C93
:100AC000E862641CBC42F3DBC5F81490C5F83490AE
:100AD00004A882451CBF504600F000FD484615B0F2
:100AE000BDE8F08F2DE9FA4E05460A462F696F2AB8
:100AF00008BF082405D041F02000782814BF0A243C
:100B000010243C26D5E90001642A18BF692A8146D1
:100B10008A4605D1002903DAD9F100096AEB4A0AAD
:100B2000BAF1000F08BFB9F1000F0CD1286B50B912
:100B3000082C36D195F83800000732D530203B26F6
:100B400087F83B002DE0E31748465146224600F067
:100B500005FDA4FB0023A9EB02023032D2B2A6F1BC
:100B6000010B3A2A5E4603DB9DF80030513B9A1890
:100B700081465FEA010A0BF8072008BFB9F1000FB0
:100B800003D0E868F1198842DDD3082C09D195F823
:100B90003800000705D5F05D302802D0761E3020E1
:100BA000F055C6F13C00A861F119E960296B884253
:100BB00008DA081A28624FF6EF71288F0840288754
:100BC000BDE8F38E00290ED595F8381001F0140118
:100BD000102908D1696B6A69891A2A6A891A0E1A5A
:100BE000012EA8BF2E62BDE8F38E00002DE9F24F62
:100BF00004468EB0D4E90001CDE9020104AF9DF8AE
:100C0000380040F0200BBBF1610F0AD0206B0028A8
:100C100048BF062004D408BFBBF1670F01D10120F3
:100C200020636168C1F30A5040F2FF7290421CD108
:100C3000080304BF2068002809D10320A0619DF8A3
:100C4000380061381A2836D30FF2346108E00320E7
:100C5000A0619DF8380061381A2829D30FF2186175
:100C6000E068032200F0FEFBBEE1012816DA204610
:100C700000F0EBFC012811DB00250020BBF1610F27
:100C800020D1E168302201F8012B4A1CE2609DF876
:100C90003820612A0CBF782258220FE0626840F2A7
:100CA000FE3161F31E52451A62604FF0FF30E5E7F6
:100CB0000FF2C051D4E70FF2C451D1E70A70616955
:100CC000891C616110B90026002584E1BBF1610F28
:100CD00040F09780206BD4E900AB00284CBF212660
:100CE000461CDDE902010022002300F0CFFC36B2F1
:100CF0003ABF8BF00040CDE902A0CDE902AB06F18E
:100D000001082D1F8DF810200DF1110700E0C71DFF
:100D1000B8F1010F33DBDDE902010022002300F00E
:100D2000CDFC2CD21C2102A800F0E0FCDDE9020180
:100D300000F064FDA8F10708B8F1010F814609DB56
:100D400000F088FD02460B46DDE9020100F09AFD45
:100D5000CDE90201F81D072105E009F00F0200F8B6
:100D6000012D4FEA2919B9F1010F01DB491EF4D514
:100D7000491E5CBF002200F8012DF9D5C7E70DF12F
:100D80001100391AB142B8BF0E4636B230000DF12B
:100D900011072FD4884206DA04A941184978082996
:100DA000A8BF0F2100DA002104AA821800E0761EF5
:100DB00012F80139401E8B42F9D00F2904D104A941
:100DC00041184A78521C4A70002802D504AF761C9C
:100DD0002D1D36B2701E0DD4C1190A783032D2B230
:100DE0003A2A03DB9DF838303A3B9A18401E01F846
:100DF0000129F2D5206B002840F1ED80701E2063A0
:100E0000E9E0DDE902010022002300F03FFC3CBFE5
:100E100081F00041CDE902012DB247F297506843BD
:100E20004B49DFF8309190FBF1F52DB2C5F1070A7F
:100E3000BAF1010F90461CDBDDE902675FEACA7078
:100E400007D542464B463046394600F0DBFD0646A4
:100E50000F464046494642464B464FEA6A0A00F072
:100E6000D1FDBAF1000F80468946E7D1CDE902678E
:100E700024E0CAF1000A0026374F14E05FEACA7086
:100E800007D542464B463046394600F0BBFD064684
:100E90000F464046494642464B4600F0B3FD4FEAF6
:100EA0006A0A80468946BAF1000FE7D1DDE90201FE
:100EB00032463B4600F078FECDE90201BBF1660FF9
:100EC000216BDFF898900CBF05F10A000620461848
:100ED000142EA8BF132630208DF810000DF1110735
:100EE000012E3DDBDDE9020100F09EFC07F1080167
:100EF00004220A23B0FBF3F303EB8307A0EB4700C4
:100F0000303001F8010C0A20B3FBF0F000EB800751
:100F1000A3EB47033033521E01F8023DE9D1083EEE
:100F2000012E01F10807DBDBDDE9020100F07CFCAA
:100F300000F09AFC02460B46DDE9020100F0A2FC3B
:100F400000224B4600F05EFDCDE90201CAE700BF7A
:100F5000A0860100000024400000F03F84D79741A4
:100F60000DF11100381A0DF1110702E0401E6D1E3F
:100F70007F1C39783029F9D0BBF1660F02D12DB230
:100F8000691C04E0BBF1650F0CBF01210021226B3D
:100F90008E1836B2B042B8BF064636B231001AD407
:100FA000814204DAC85D3528A8BF392000DA302034
:100FB000CA19521E00E0761E12F80139491E8342FA
:100FC000F9D0392802D1C85D401CC855002902D586
:100FD0007F1E761C6D1C2DB29DF83810009533B223
:100FE0003A46204600F003F80FB0BDE8F08F2DE937
:100FF000F04786B006468A4690461D4600F01DFF23
:10100000012D406A376B90F8009002DA01250FF24B
:1010100074284AF02000BDF93840662808BF641CD7
:1010200012D0672876D114F1040F79DBBC4277DA4D
:1010300096F83800641C000702D4BD42B8BF2F46A2
:1010400024B23F1B48BF002724B2F068B169012CCD
:1010500021DA4A1C30230B54012F03DA96F838109A
:10106000090702D502F80090521CE742B8BF7C4243
:1010700024B2E7196142AF42B2617162B8BF3D4626
:10108000B3692DB2F5612A464146181800F0EAF915
:10109000781BB062BBE00818A54216DA2A46414622
:1010A00000F0E0F9B1696918601B012FB16170624D
:1010B00003DA96F83800000705D5F06801F80090CB
:1010C000F069401CF061B762A1E02246414600F0A1
:1010D000C9F9B06920182D1B012F03DA96F83810D2
:1010E000090703D5F16800F80190401CB0612DB2EA
:1010F000AF42B8BF3D46F068B3692DB22A4604EB53
:101100000801181800F0AEF9B0692818B061781B12
:1011100070627CE0BAF1610F14D14FF0700A16E0F2
:10112000BD4204DA96F83810090758BF2F467F1ED3
:1011300048BF0027BAF1670F14BF4FF0450A4FF0C0
:10114000650A04E0BAF1410F08BF4FF0500AB169D7
:10115000F06818F8013B0B544A1C012F05DA96F889
:101160003810090758BFB26115D502F80090531C1A
:10117000012FB3610FDB6D1E2DB2AF42B8BF3D46EC
:101180002DB22A464146181800F06CF9B0692818AB
:10119000B061781B7062F068B1690918200081F8AD
:1011A00000A004D42B20487001F1020804E02D2295
:1011B0004A7001F102086442002502AF08E00A22E9
:1011C00000A800F053FE019807F8010B6D1C009C6D
:1011D00021B20129F3DA022D06DA4AF0200065284F
:1011E00004BF302008F8010B4DB9302008F8010B7E
:1011F00007E06D1E02A8285C303008F8010B012DB5
:10120000F7DAF068B1690818A8EB0000F06196F809
:10121000380000F0140010280DD17069B169081869
:10122000716A0818F1690818B16A0818716B884268
:10123000BCBF081A306206B0BDE8F087F8B50446B6
:101240000D4616461F46002004E0E86A401CE8628E
:101250007F1E002047B116F8011BA868A047002890
:10126000A860F2D14FF0FF30F2BD00000000000096
:10127000000000006E616E004E414E00696E660017
:10128000494E46003000F8B504460D4616461F4646
:1012900000F0FDFD3B4632462946204601B0BDE840
:1012A000F04000F00ABE03681AB95A1E02600846F0
:1012B0007047197811B94FF0FF307047591C016021
:1012C000187870470278C9B28A421AB11CBF10F868
:1012D000012FF9E718BF002070478268521C826016
:1012E000426832B10268531C036011704168491EA4
:1012F0004160704700F10103810704D010F8011B21
:1013000089B18107FAD10268B2F10131914311F03C
:10131000803F04BF50F8042FF6E710F8011B11B10D
:1013200010F8011BFBE7C01A70470268531C0360EA
:1013300011707047C9B2830706D0521E22D310F82D
:10134000013B9942F7D11FE0083A13D302F104029E
:1013500041EA012141EA014150F8043B121F21BF3B
:101360004B40A3F1013C2CEA030C1CF0803FF3D06E
:10137000C9B2001F083210F8013B521E28BF91EA83
:10138000030FF8D818BF0120401E704780B500F049
:101390007EFD012002BD000070B5054605F10F007D
:1013A000C408C046C046E400A54232D2082C04D28C
:1013B000082402E0083000F091F822480268110089
:1013C0000CD1011D0A6802B31368A34238BF111D76
:1013D000F8D310E01D68A5420DD2191D0B68002B33
:1013E000F8D11268011D00E0191D0B6893420CD062
:1013F0001D68A542F8D361B10D682A68A2F10803FF
:10140000A3420AD26A680A600FE000F079FD002862
:10141000D0D1C046C046002070BD63190B60121BBE
:101420006E685E600B681A602C60096800291DBF39
:101430004A68002A091D00210160C046C04605F126
:10144000080070BDC40A002070B504460D4616465B
:1014500000F01DFD324629462046BDE8704000F0F0
:101460001FBD000062B38B0708D0521E11F8013B6C
:1014700000F8013B00F024808B07F6D1830740F091
:10148000208000BF103A07D330B4B1E83810103ACA
:10149000A0E83810F9D230BC530724BFB1E80810D7
:1014A000A0E8081044BF51F8043B40F8043BD207C1
:1014B00024BF31F8022B20F8022B44BF0B780370B5
:1014C0007047083A07D3B1E80810083A40F8043BDF
:1014D00040F804CBF7D25307E4E7000000B97047A7
:1014E00038B5A0F108042068082833D310F0070F9E
:1014F00030D1C046C0461848416809B18C4203D279
:101500006160446017E019464B680BB1A342FAD3FF
:101510000B685D18AC421BD3A54204D12268D218D7
:101520000A600C4607E04A681AB123681B199A4200
:101530000ED362604C60616851B1226813198B420E
:1015400006D1002303600868801820604868606046
:10155000C046C04631BD0000C40A00201B4213D162
:10156000094236D12AB18446B0FBF2F002FB10C228
:10157000704700F0DBBCFCD30022002370470B0057
:101580000200002100207047904271EB030CF6D35B
:1015900070B5B1FA81F4B3FA83F52C1BA340C4F102
:1015A000200532FA05F63343A2405FF00046E640DC
:1015B00002E05B085FEA3202841A71EB030524BF84
:1015C000204629467641F4D302000B00300000216A
:1015D00070BD012ACFD970B5140C20D0B1FA81F4B6
:1015E000B2FA82F5C4F120046419B4F12006D6D30E
:1015F000B2405FF00044F440002502E052085FEA88
:101600003303C61A71EB020E24BF304671466441A3
:101610006D41F3D302000B002000290070BD0C4681
:10162000B1FBF2F102FB11452D0445EA1045B5FB73
:10163000F2F402FB145580B240EA0545B5FBF2F026
:1016400002FB105240EA044070BD30B4436803F01E
:10165000004201211B031B0B436004BF0368002BE6
:1016600008D10DE00368DD0F45EA440444605B00E7
:101670000360491E4468E302F4D523031B0B436057
:1016800043681A434260084630BC70474FF4001C60
:101690001CEB410F94BF1CEB430F09E041EA030C24
:1016A00050EA4C0C52EA0C0C03D2994208BF90420B
:1016B000704714BF8B428242704700004FF4001CF9
:1016C0001CEB410F94BF1CEB430F09E041EA030CF4
:1016D00050EA4C0C52EA0C0C03D28B4208BF8242F7
:1016E000704714BF994290427047000070B504469D
:1016F0000D466068C0F30A5040F2FF71884207D17E
:101700006068000304BF2068002817D0022070BD65
:1017100020B92046FFF799FF012868DA012D0FDB79
:1017200040F2FF71091A8D420AD36068002847BF52
:101730000020304900203049C4E90001012070BD7B
:101740004142A942616806DA6FF31E51401941EA2D
:101750000050606042E0401E63684519012205F1B7
:10176000350062F31F53352801F00041636003D355
:1017700061600020206070BD002215F11F0F04DAA7
:1017800022682360002020356060684214D0521E19
:1017900025689241C0F12003D2439D4045EAD272B0
:1017A000256825FA00F6656805FA03F333432360DC
:1017B000636823FA00F5656060680843B2F1004F82
:1017C000606003D80DD12078C0070AD52068401C7E
:1017D0002060206828B96068401C60604FF0FF30CE
:1017E00070BD6068884204BF20680028F6D10020E0
:1017F00070BD00BF0000F0FF0000F07FF446400D18
:1018000040EAC120490006D200F014F8004248BF67
:101810006FF00040604700F00DF84FF00041884243
:101820008CBF084640426047400D40EAC120490055
:1018300080F00D8040F00040490DA1F58061491C09
:1018400005D4D1F11F0154BFC840C01770474FF0F5
:1018500000007047010040F10980F446404200F06A
:1018600005F851F000416047010000BF09D0B0FA0F
:1018700080F18840C91CC1F58461090501EBD021C4
:1018800040057047F0B44FF0004591EA030F44BFA4
:101890006B4000F057BB00BF841A71EB030604D203
:1018A0006E40001BB141121973414FF4001C1CEB38
:1018B000410F34BF7CEB430684E00C0DA4EB1356C0
:1018C000362E7DDC012E43DC45EAC32343EA525326
:1018D00012BFD20292025B08240545EAC12141EA07
:1018E0005051D2EBC020994125D407D1B0FA80F6EF
:1018F00010FA06F164D00020203608E0B1FA81F633
:10190000B140C6F1200220FA02F21143B0404FEA82
:10191000F474B4EB465434F001064FEA74040AD868
:10192000D6F50016760D04F00044F04061FA06F298
:101930005040F1404840C00A40EA415021F0004187
:1019400028BF5FEA500550F1000044EBD12137E099
:1019500045EAC323DB0A45EAC121C90AB6F12005DD
:101960000EDD42EA0242120CC5F1200603FA06F629
:10197000EB4042EA06056D42984161F100010DE03D
:1019800062FA06F5F240554063FA06FC82EA0C0260
:10199000F3405A406D42904161EB030111F4801F06
:1019A00005D1641E620502D06D004041494121F419
:1019B0008011430875F1004350F1000041EB0451E0
:1019C000F0BC70471CEB410F15D223F0004352EAE4
:1019D00043060BD04FEA4C0CBCEB410F04D80C0D66
:1019E000661E342EB7DDEBE7801A994150EA4106B6
:1019F00008BF0021E4E708BF1CEB430F28BF6FF0CE
:101A00000001DDE7B0B581EA030C0CF0004C40F2B8
:101A1000FF7515EA11541DBF15EA1357AC42AF42CA
:101A200039E0E41923EA455343F48013C90241F035
:101A3000004141EA505EC7021100A7FB02020028E4
:101A40004FF00000EEFB01204FF00001E3FB072107
:101A500018BF42F00102401800214941E3FB0E018A
:101A6000A4F580640F0302D252004041494154F171
:101A700001046CDD470872F1004250F1000051EBA7
:101A80000451A1F580115CBF41EA0C01B0BD4CEAE4
:101A900005510020B0BD05EA1357AC4214BFAF4258
:101AA00041E050EA410E1CBF52EA430E02E061469B
:101AB0000020B0BD24423C441BD15FEA070EF6D0A3
:101AC000090302BF01460020AEF1140EB1FA81F7FE
:101AD000AEEB070401FA07FE0C37C7F1200100FA4C
:101AE00007F7C8404EEA000E23EA455343F480133B
:101AF000A2E733F00043B3FA83F704BFB2FA82FEE1
:101B000077440B3FE41BB7F1200E2FBF02FA0EF310
:101B1000BB40C7F1200E22FA0EFE38BF43EA0E0387
:101B2000BA40641C82E750EA410E14BF52EA430EE9
:101B30006FF000014FF4001717EB430F8ABF1946EF
:101B400017EB410FB5E74CEA05510020B0BDD4F1C9
:101B50000104B4F120070FDAC4F12007520828BFAE
:101B600042F0010210FA07F501FA07F7E1BF2A4334
:101B7000E0403843E1400FE0352C98DCC7F1200409
:101B800052EA400220FA07F218BF42F0010231FA8D
:101B900007F0A1400A43002172F1004250F1000019
:101BA00051EB0C01B0BD00002DE9F04140F2FF7592
:101BB00081EA030C0CF0004C15EA11541DBF15EA24
:101BC0001357AC42AF42E9E0BC41C1F31301C3F388
:101BD0001303801A994143F4801304D2641E400019
:101BE000494180185941C90241EA5051B1FBF3F60D
:101BF00003FB1611A2FB0675D7EBC020A94102D248
:101C0000761E80185941C90241EA5051B1FBF3FEDA
:101C100003FB1E11A2FB0E75D7EBC020A94103D216
:101C2000AEF1010E80185941890241EA90517605C2
:101C300046EA8E2EB1FBF3F603FB1611A2FB0675E6
:101C4000D7EB8020A94102D2761E80185941C902E3
:101C500041EA50514EEA060EB1FBF3F603FB1611B2
:101C6000A2FB0675D7EBC020A94102D2761E8018D0
:101C70005941C90241EA5051B1FBF3F703FB171177
:101C8000A2FB0735D3EBC020A94167F100070CBFC9
:101C9000004247F0010766F3D5274FEA1E31B80826
:101CA00014F5806414DDBD0775F1004250EB0E5051
:101CB00051EB045111F5801F5CBF41EA0C01BDE8F6
:101CC000F0814CF07F6141F0E0410020BDE8F081FF
:101CD000BD076D0840EA0E5041F48011D4F10104B3
:101CE000B4F120060ADAC4F120060200E04001FA4D
:101CF00006F3E1401843B24015430EE0342C14DCE7
:101D0000C6F1200445EA40056D0820FA06F21543A5
:101D100021FA06F0A1400D43002175F1004250F177
:101D2000000051EB0C01BDE8F08100205FEA0C01DE
:101D3000BDE8F081CFB992185B41B3FA83F704BFD5
:101D4000B2FA82F6BF190B3FB7F120062FBF02FA95
:101D500006F3BB40C7F1200622FA06F638BF33432C
:101D6000BA401CB1E419641E2FE77F4231F00041F4
:101D7000B1FA81F404BFB0FA80F6A4190B3CB4F1B7
:101D800020062FBF00FA06F1A140C4F1200620FA78
:101D900006F638BF3143A0403C1B16E7AC421ABFE1
:101DA00005EA1357AF4214E050EA41061CBF52EA5D
:101DB0004306BFE750EA4107304661461CBF41EA8F
:101DC0000551BDE8F08152EA430C08BFC143BDE8AC
:101DD000F08100204FF4001616EB410F98BF16EB70
:101DE000430F08BF16EB410F24BFC14305E016EBBC
:101DF000430F0CBF61464CEA0551BDE8F08100007D
:101E000080B5134800F008F90FF24C020FF24401BC
:101E10000160426241600FF24402826381600FF20E
:101E20004402C1600161416181618162C1620163FB
:101E30004163C2630164416401BD10B5044800F010
:101E4000EBF80446206808B9FFF7DAFF204610BD1A
:101E5000A0080020000000002E00000066616C73E6
:101E600065000000747275650000000091FBF2F3DC
:101E700003FB1211C0E900317047000010B50446A1
:101E8000DFF8180000F0C8F850F8240010BD80B545
:101E9000DFF8080000F0C0F8806902BD30090020BA
:101EA00030B430B90FF24800D0E90045C2E900452E
:101EB0001BE00170012030BC704730B431B90FF223
:101EC0003800D0E90045C3E900450EE01AB930BC3E
:101ED0006FF00100704708B10A7802800978481E47
:101EE000804130BCC043C00F7047002030BC7047F9
:101EF00000000000000000000000000000000000E2
:101F00000749086808B1002070470648C008C000AB
:101F100008600549C908C900091A0160704700BF77
:101F2000D40A0020DF0E0020D810002070470000E7
:101F3000F0B44FF0004591EA030C44BF6B40FFF74B
:101F4000ABBC00BF841A71EB030603D2001BB14186
:101F5000121973414FF4001C1CEB410F34BF7CEB92
:101F6000430443E00C0DA4EB1356352E50DC45EA38
:101F7000C323DB0A45EAC121C912B6F120050DDDF4
:101F800063FA05F6EB4086EA0305124218BF45F0F6
:101F90000105C01851F100010CD213E062FA06F5F8
:101FA000F2405540F3415A40B340F3405A40801844
:101FB000594107D349085FEA30005FEA350528BF79
:101FC00045F0010501F58011420875F1004250F11C
:101FD000000041EB0451F0BC4FF4001C1CEB410F1E
:101FE00038BF70470020090D090570471CEB410FF1
:101FF00010D252EA43060BD0BCEB410F05D80C0DB2
:10200000AB43661E342EB5DD02E0AB438018594168
:10201000F0BC7047F0BC70477047000010B5044634
:1020200007E0142301222146DFF8100C00F015FF11
:10203000641C20780028F4D110BD01F06FB912B5EE
:1020400083B0642102910121019103A9009102460C
:10205000DFF8EC4B01235021201D01F0E5F9A8B178
:10206000012806D10FF63440FFF7D8FF0220207078
:102070001FBD032808BF0FF6384005D002280CBF4B
:102080000FF654400FF67840FFF7C8FF1FBDE0B5CC
:102090006423019202930091024601235021DFF84C
:1020A000A40B01F011FA07BD2DE9F04F93B001F038
:1020B0000BF900F068FBDFF894ABDFF8947BDAF8FB
:1020C0000000DFF8908B40F02000CAF8000000A963
:1020D000DAF8000000F0200004904FF480440498E7
:1020E000DAF8000040F01000CAF8000008F2DC4501
:1020F000DAF8000000F01000049008F5BE6B0498B8
:10210000DAF8000040F00400CAF80000DAF8000035
:1021100000F0040004900498DAF8000040F0080091
:10212000CAF80000DAF8000000F0080004900498F3
:102130000F2000900120019002200390384601F00A
:1021400017FD4FF4004000F007FBDFF8100B01F023
:102150000FFD0820009000A90120019003200390AA
:10216000DFF8FC0A01F004FD102000F0F5FADFF8BA
:10217000F00A01F0FDFCDFF8C81ADFF8E80A486051
:10218000DFF8E40A88600020C86008614C6188615B
:10219000C86108624862DFF8AC0A01F0CFF8DFF8E6
:1021A000CC0AA865DFF8C80AE865002028666866DA
:1021B000AC66E86628676867A86708F2345001F0E3
:1021C000BDF8DFF8B00A28604FF482706860002024
:1021D000A860E860286168614FF40070A861302051
:1021E000E861002028626862A8620A20E862284646
:1021F00001F0A4FD4FF08040CBF8400040F21F30CA
:10220000CBF844000020CBF8480008F5AE66552016
:10221000CBF84C004FF4E1340020CBF8500008F527
:10222000C660009001F0DEFD4FF48050039003A9DA
:102230000098DFF8449A01F0A5FE0020019002907A
:1022400001A9009801F084FFDFF8300A3060746063
:102250000020B060F06030610C2070610020B0613F
:10226000F061304600F0C0FDDFF8140A3064746499
:102270000020B064F06430650C2070650020B0650B
:10228000F06508F5B660099000F0AEFDDFF8F409DE
:10229000CBF800004FF41650CBF804000020CBF828
:1022A0000800CBF80C00CBF810000C20CBF8140081
:1022B0000020CBF81800CBF81C00584600F094FD25
:1022C000DFF8C409C9F81800C9F81C400020C9F893
:1022D0002000C9F82400C9F828000C20C9F82C00F7
:1022E0000020C9F83000C9F8340009F1180000F0E6
:1022F0007BFDDAF800000FF61C2440F00100CAF85C
:1023000000000022DFF88409016841F000710160DB
:102310003846082101F0F0FC002200F010FA0022FB
:10232000022100F00DFA00F0FFF90122082100F06F
:1023300007FA012200F003FA0122022100F000FA5C
:102340000122042100F0FCF900F00DFA00F0F0F990
:1023500000F0F9F900F0E0F900F061FA00F0DCF9C2
:1023600001F052FF01F043FF01A801F08FFF08F5D3
:1023700096700021017000270A21417008F5E86A73
:10238000009801F03CFD00F0CFF93A462146504656
:1023900002F082F800F0C4F97F1C3C2FF3DB00F060
:1023A000C3F959460FF6781000F017FA00F0BCF99F
:1023B000DBF8000000F0ABF908F5CE64306800F0FF
:1023C000A6F908F5D277306C00F0A1F900F0A4F975
:1023D0000020C8F87C06C8F884062062C820606225
:1023E0000020A06208F2FC60049008F2B46008903B
:1023F00018E009F118010FF6DC1000F0EEF90020EA
:10240000B8740A23012208F5DB71284602F05EF851
:10241000BA7C0FF6CC11504602F03EF800F080F97D
:1024200000F0A1F9D8F878060A2804DB01203870FA
:102430000020C8F87806D8F87C060A2804DB0120BA
:1024400078700020C8F87C06606AC82803DB012089
:10245000B870002060623878012816D1012200F09F
:1024600068F900F076F908990A230122304600F055
:10247000F4FC00F06EF900F05BF90120F874002024
:10248000E06301203872002038707878012816D176
:10249000012200F059F900F05CF9089909980A2323
:1024A000012200F0DAFC00F054F900F04CF90120B0
:1024B0007875002020640120787200207870B87848
:1024C000012811D107215A2002F0FDFAA0610A204B
:1024D00000F024FF06215A2002F0F5FAE0610A20FC
:1024E00000F01CFF0020B870387A012804BF387D46
:1024F000012804D1B8710020C8F880063875787AB0
:10250000012804BFB87D012804D1F8710020C8F863
:102510008406B875B879012811D1049800232022C7
:1025200008F5D76100F068F9049808F26C6291A18F
:1025300002F0CAFB0020B87138720120387108F22D
:102540001D700390F879012810D1039800232022F0
:1025500008F2D96100F050F90398224685A102F0F3
:10256000B3FB0020F871787201207871F87B0128A4
:1025700043D1C82208F5DE714046FEF783FF0020F4
:1025800088F8C80008F5D77208F2A470079008F21E
:10259000C470069008F2E470059008F2B51002903D
:1025A0000598069B0799019008F5DA70009040465F
:1025B00000F084F9069808F29C6100F0E4FA0598AE
:1025C00008F5D46100F0DFFA079808F2B11308F5B6
:1025D000D87208F2AF1100F0FEFAE06A08F2A461C6
:1025E00000F0DDFA206B08F5D56100F0D8FA002084
:1025F000F8730120B8730020A062387900281CBF4E
:10260000787900283FF40EAF0020B880002208211E
:1026100000F09BF8049809F1180100F0DEF8039827
:1026200009F1180100F0D9F8DBF87C0021680A18DC
:1026300062609EA1504601F02FFF00F071F8DFF8B4
:1026400000060078012812D10AA801F0F2FEDDE9A7
:102650000C01CDE90201DDE90E01CDE90001DDE962
:1026600010230FF2F461504601F016FF08E0022833
:102670000CBF0FF2F8610FF20471504601F00CFF2D
:1026800000F04EF8E06902F031FBCDE90001A069ED
:1026900002F02CFB02460B460FF2F461504601F0AB
:1026A000FBFE00F03DF8B87B00283FF4A2AE012805
:1026B0007FF4A5AEA06AB0F5487FC4BF0020B87310
:1026C000B87A41281ED1787B3B7BFA7A0FF2E86119
:1026D0000090504601F0E0FE00F022F8387C0090B7
:1026E000606B02F003FB00F047F800F019F8787C0B
:1026F0000090A06B02F0FAFA00F03EF809F1180120
:1027000050467AE609F118010FF2946075E6C16847
:1027100041F02001C16070474FF4FA6000F0FEBD47
:1027200009F11801504658E04FF47A7000F0F6BDF8
:1027300000224FF40041DFF8240501F0DDBA012149
:10274000384601F0D9BA00221021DFF8140501F053
:10275000D3BA022000F0E2BD009000A90120019050
:1027600002200390704701220821DFF8F40401F0F1
:10277000C3BA00002564000002460B460FF2486110
:10278000504601F089BE00B58FB0012005904FF48E
:102790008030069000200C9005A802F0CFFA0120AE
:1027A000009001900021002002900390049000A866
:1027B00002F045FC02F03CFD4FF47A71B0FBF1F001
:1027C00002F0C5FD042002F0D6FD002211464FF0B4
:1027D000FF3002F095FD0FB000BD38B504460D4640
:1027E00006E0142301222146284600F036FB641C33
:1027F00020780028F5D131BD30B5002401E0255402
:10280000641C94420ADA655C3B2DF8D1012B0CBFA5
:102810000A210921215420180021417030BD38B50A
:1028200041F28834DFF85054287804283CDA2878BC
:1028300010B101281CD0F7E70A21281D02F0B8FDCD
:1028400007E005F1180105F18400FFF7C6FF01203C
:10285000287028780028E7D12346022200F028F8C3
:1028600005F15801281D02F0A7FD0028E9D0E3E793
:102870000A21281D02F09CFD07E005F1180105F171
:102880009000FFF7AAFF0520287028780128CBD1F7
:102890002346032200F00CF805F17801281D02F010
:1028A0008BFD0028E9D0E3E731BD00002564090075
:1028B000291D05F1180000F018BB00002DE9F841B2
:1028C00001248DF800400025DFF8C443A576E576A5
:1028D000257704F10C05B5E8C010A4E8C010002568
:1028E0000C3C1570079E6568089FDDF824E001E048
:1028F00084F81AC09DF800C0BCF1010F23D115F86F
:1029000000C0BCF1000F1BD084F819C06D1C94F8F6
:102910001AC0BCF1000F09D0BCF1020F54D015D37E
:10292000BCF1040F4BD0C0F0A480E3E794F819C0C9
:10293000BCF1240F0CBF4FF0010C4FF0000CD7E797
:1029400000208DF800006560BDE8F18194F81B80DF
:10295000B8F1050FCED8DFE808F004101A24272CB0
:10296000C8E794F819C0BCF1470F0CBF4FF0010C39
:102970004FF0050C84F81BC0BCE794F819C0BCF1FB
:10298000500F14BF4FF0050C4FF0020CF2E794F813
:1029900019C0BCF1520F14BF4FF0040C4FF0030CE0
:1029A000E8E74FF0020CA3E74FF0000C84F81AC0E0
:1029B000E0E74FF0000C84F81BC084F81AC04FF019
:1029C00000088DF8008095E794F81CC0BCF1000F5A
:1029D00004D0BCF1020F2AD00CD38BE794F819C0B5
:1029E000BCF12C0F0CBF4FF0010C4FF0000C84F821
:1029F0001CC07FE794F819C0BCF12C0F0CBF4FF03E
:102A0000020C4FF0010C84F81CC094F81CC094F820
:102A10000080BCF1010F0CBF94F819C04FF0090CF5
:102A200008F801C008F1010C84F800C062E794F8CE
:102A300000804FF0000C08F801C094F819C084F829
:102A400018C094F819C0BCF1410F0BD0BCF1560F5F
:102A500007D14FF0040C84F81AC04FF0560C82F8DE
:102A600000C047E74FF0030C84F81AC04FF0410C48
:102A7000F5E794F81C80A8F10208B8F1050FF0D82A
:102A8000DFE808F0050F2C48650398E732E794F873
:102A900019C0BCF12C0F14BF4FF0020C4FF0030C07
:102AA000A5E794F819C0BCF12C0F0CBF4FF0040C33
:102AB0004FF0030C84F81CC094F81CC094F80880F4
:102AC000BCF1030F0CBF94F819C04FF0090C08F8C3
:102AD00003C008F1010C84F808C00BE794F80880E3
:102AE0004FF0000C08F803C094F819C0BCF12C0F8B
:102AF0000CBF4FF0050C4FF0040C84F81CC094F888
:102B000019C0BCF14E0F18BFBCF1530F01D186F8AC
:102B100000C0EFE694F819C0BCF12C0F0CBF4FF0C9
:102B2000060C4FF0050C84F81CC094F81CC094F8F7
:102B30000980BCF1050F0CBF94F819C04FF0090CC7
:102B400008F807C008F1010C84F809C0D2E694F82F
:102B500009804FF0000C08F807C094F819C0BCF1C8
:102B60002C0F0CBF4FF0070C4FF0060C84F81CC064
:102B700094F819C0BCF1450F18BFBCF1570F01D133
:102B80008EF800C0B6E610B582B00C460021009168
:102B900000AA2DA102F098F80098206013BDF8B5A6
:102BA0000D4604463B4902F029FC02F0A5FC06460E
:102BB00002F0C4FC07466420704302F0BFFC0146EB
:102BC000204602F0D3FC344902F018FC394602F0EA
:102BD00041FD2860F1BDF8B50C4600210091154675
:102BE0001E4600AA1CA102F06FF80098009A42F25B
:102BF0001071B0FBF1F0C0B201FB10226423B2FBF4
:102C0000F3F2D7B24FF0640C009B0CFB07F701FB0B
:102C10000071591A317002F11E01C9B23C2903DB5F
:102C20003C39401CC9B2C0B2C01CC0B21828A4BFF5
:102C30001838C0B220702970F1BD00001C080020B7
:102C40009C090020A0090020256600001810024001
:102C50000010014000000020256400000008014031
:102C6000000C014000540040A086010000580040C4
:102C7000801A06000030014004080020004C00408B
:102C80000050004000380140004400400400014072
:102C9000A40A00200000C84200007042424E4F309B
:102CA00035352020202050524F424C454D0D0A0012
:102CB00048414C5F4932435F4D61737465725F54A4
:102CC00072616E736D69742048414C5F54494D4583
:102CD0004F55540D0A00000048414C5F4932435F94
:102CE0004D61737465725F5472616E736D697420A7
:102CF00048414C5F42555359206D65200D0A000034
:102D0000556E6B6E6F776E2073746174757320648B
:102D100061746100256420736563730A000000001C
:102D200024504D544B3331342C302C312C302C303A
:102D30002C302C302C302C302C302C302C302C30B3
:102D40002C302C302C302C302C302C302C302A32A3
:102D5000390D0A000000000025302E3266092530AA
:102D60002E32660925302E3266090000424E4F2071
:102D700050726F626C656D0900000000424E4F207A
:102D8000756E617661696C61626C650900000000B6
:102D900025302E32660925302E32660900000000EB
:102DA00047505320446174612077617320696E76C7
:102DB000616C6964090000002532643A2532643A86
:102DC000253264090000000025322E37660925638C
:102DD000090000004750535F4552524F520900000E
:102DE000256425250A00000038B5050001D1012021
:102DF00032BD00F02EF818B92070284602F004FD0C
:102E000000F011F800F007F821F02A01FFE7416116
:102E100000F013F832BD2868016921F49041016186
:102E2000286841697047022060702868C16821F4F1
:102E30000051C160284600F0F2B92868C16841F429
:102E40000051C16000206060012060700020704768
:102E5000054605F1380460787047F8B500F094F83D
:102E600018BF22281E463ED1002D18BF002A01D1CE
:102E70000120F2BD3878012835D000F090F82228E2
:102E80000CBF322012207870A284E28406E000F0A9
:102E900082F800BB216815F8010B4860E08CA0B1F6
:102EA000401EE0843346A068B0F5805FEFD100F0AB
:102EB00072F880B928882168C005C00D4860206973
:102EC000002814BF6D1CAD1CE8E7334600224021EA
:102ED00000F063F808B10320F2BD787832280CBF07
:102EE0002220012061E00220F2BDF8B500F04CF88C
:102EF00018BF12281E4645D1002D18BF002A01D147
:102F00000120F2BD387801283CD000F048F81228A2
:102F10000CBF322022207870A285E28503E0C00534
:102F2000C00D25F8020BE08D30B3401EE08533461E
:102F3000A068B0F5805F0DD10022202100F02DF8AF
:102F400068B92069002820684068E8D0C0B225F838
:102F5000010BE8E70022202100F01FF808B1032050
:102F6000F2BD206900282068406802D105F8010BF5
:102F7000D9E700F07F00F9E7787832280CBF1220FB
:102F8000012012E00220F2BD044604F138070D468C
:102F90007878012870470022802120469FE0012098
:102FA000387000207860787870477870002038702A
:102FB000F2BD10B5044682B020680168C268C90736
:102FC0000AD5D10508D501680091416800910099A2
:102FD000E16B41F00101E1630268416992070AD5A2
:102FE000CA0708D50268009242680092009AE26B14
:102FF00042F00402E263026852070AD5CA0708D504
:103000000268009242680092009AE26B42F002026B
:10301000E263026812070AD5C90708D50168009162
:10302000416800910099E16B41F00801E16301689A
:10303000C068890604D5800644BF204600F09FF88A
:1030400020680168C268090626D5110624D594F8BF
:103050003910122918BF32291ED1A168B1F5805F3D
:10306000216A0BD10988C905C90D41602069002872
:10307000206A0CBF801C401C206203E04A1C2262B4
:1030800009784160E08C401EE08480B220B900F0F5
:103090006EF841F04001C16020680168C2684906CD
:1030A00012D5510610D5C16821F04001C16094F8D5
:1030B0003900322808BF222001D000F051F884F8EE
:1030C0003900204600F009F8E06B28B1012084F8AF
:1030D0003900204600F002F813BD704770472DE913
:1030E000F84304460E4691461F4600F014F9B9F124
:1030F000000F804604F138050FD120680068304089
:10310000B0422AD017F1010FF7D0AFB100F003F9A8
:10311000A0EB08008742F0D20EE020680068304043
:10312000B0421AD117F1010FF7D02FB100F0F3F828
:10313000A0EB08008742F0D200F019F821F020013E
:10314000C1602068C16821F48071C16000F008F896
:10315000687000202870032000E00020BDE8F283A2
:103160002068416949084900416101207047206891
:10317000C16821F08001C1602068C168704780B5D6
:1031800090F83910222918BF322946D18168B1F54B
:10319000805F11D10269816A002A0268526805D1F4
:1031A000D205D20D0A80816A891C03E0D2B20A805E
:1031B000816A491C81620FE001690029816A04D19A
:1031C0004A1C82620268526805E04A1C82620268F8
:1031D000526802F07F020A70C18D491EC18589B212
:1031E000C9B90168CA6822F02002CA6090F8391093
:1031F000322908BF12210AD00168CA6822F48072FD
:10320000CA6001684A69520852004A61012180F887
:10321000391002F018FC002002BD022002BD2DE989
:10322000F0410446642520680169E26821F44051B8
:10323000114301611926C168214A1140A268114356
:103240002269114362691143C1604169A26921F495
:103250004071114341611B49884208D102F000F8D6
:10326000804601F0FDFF074601F0FAFF07E001F09C
:10327000EFFF804601F0ECFF074601F0E9FF7043E5
:1032800006FB07F361688A00B0FBF2F0B3FBF2F3D0
:10329000B0FBF5F005FB1030000106FB08F1323001
:1032A000B1FBF2F1B0FBF5F0B1FBF5F100F00F006E
:1032B00040EA011021688860BDE8F081000000004C
:1032C000F3E9FFFF0038014080B51A48016841F07A
:1032D00010010160032002F006F8002000F004F85D
:1032E00002F0FAF9002002BD10B5044601F0A0FF7B
:1032F0004FF47A71B0FBF1F002F029F80022214678
:103300004FF0FF3001F0FCFF002010BD0A480168BB
:10331000491C0160704708480068704711B581B0CA
:10332000FFF7F9FF0446FFF7F6FF0199001B8842FB
:10333000F9D313BD00200240D00A002038B50500A3
:1033400001D1012032BD05F13404607818B9207034
:10335000284602F0D7F90220607028680168490801
:103360004900016001F074FF2A68DFF87812B0FBB1
:10337000F1F151606B68DFF87022934206D34FF48D
:10338000967359434FF47A73B1FBF3F12B68491CE0
:1033900019626968914208D24900B0FBF1F0010559
:1033A000090D042913D2042011E0AA6832B901EBF7
:1033B0004101B0FBF1F040F4004005E01922514317
:1033C000B0FBF1F040F44040010508BF012029683E
:1033D000C861E869296A0843296808602869E968BA
:1033E0000843296888606869A96908432968C86032
:1033F0002868016841F0010101600020606001203F
:103400006070002032BD016841F40071016001204C
:10341000787000203870704742F210730122DFF894
:103420005C12284600F010BB2DE9F84F00F0DEF8E2
:1034300043D10A9E002E1CBF0B9C002C3ED0FFF7F0
:10344000EBFF002839D13878012836D000F0F2F8A7
:10345000322000F0D4F800F03EFA40B17868042839
:1034600002D100F02DF829E0002038701FE0DFF8CD
:103470000092434600224946FFF7D3FFB8B92968B6
:1034800016F8010B0861641E28684169490705D5D3
:10349000A4B234B116F8011B0161641EA4B2002C61
:1034A000E5D1434600224946FFF7BBFF08B10320A0
:1034B00004E02868FFF7A7FF00E00220BDE8F28FD4
:1034C00000203870012070472DE9F84F00F08EF889
:1034D00008D10A9E002E1CBF0B9C002C13D0FFF7B6
:1034E0009BFF00287AD13878012877D000F0A2F825
:1034F000422000F084F800F03AFA40B178680428DD
:1035000002D1FFF7DDFF6AE00020387053E0012CA4
:1035100003D1286800F097F80CE0022C286807D146
:1035200000F078F82868016841F4006101602868BB
:1035300000F098F8042CA4F10109DFF83C1135DA09
:10354000012C0CD143460022FFF76BFF002801BF7E
:103550002868006906F8010B4C4639D02BE0022C94
:10356000DFF81091434609D100224946FFF759FF81
:10357000002820D100F053F8002412E00022494630
:10358000FFF74FFFB8B9286800F044F8434600F051
:103590004CF800224946FFF744FF60B900F03FF8BD
:1035A000E41E00F042F800F040F811E0434600222B
:1035B000FFF737FF08B1032011E000F036F84C4662
:1035C00028684169490703D5006906F8010B641EA4
:1035D000A4B2002CAED1FFF71AFF00E00220BDE834
:1035E000F28F000040420F00A1860100054605F160
:1035F000340789467878012892469B467047787050
:103600005246002078604946DDF83080CDF80080D1
:1036100028467047016821F480610160704728687E
:10362000016841F40071016070472868006906F87C
:10363000010B7047012038705B462868016821F44F
:10364000006101607047016821F4806101602868B1
:1036500041690091816900910099016841F400710C
:10366000016070474169009180690090009870473F
:103670008000010004000100400001000200100071
:103680002068016841F480710160704738B50168B5
:103690008A69D2075DD58A694B694C6852074A69C5
:1036A0002DD500F0B2F80FD563050DD562B900F045
:1036B000A0F800F0EFF8418D002904D100684168BE
:1036C00021F48061416031BD002AFCD0AA05FAD501
:1036D000428D002A74D100F086F80A6842F4007224
:1036E0000A6090F83510322904D100F0CFF800F0CC
:1036F00095F831BD00F0CAF800F08DF831BD00F04A
:103700007EF81FD563051DD5E2B9428D042A65D226
:10371000022A18BF032A10D04A6822F4E0624A60E5
:1037200000F0C2F804D100F0B1F800F078F831BD33
:1037300000F0ACF800F070F831BD486820F480600B
:10374000486031BD002A4DD0A9054BD5BDE83240B7
:1037500066E04A694B684C698D695B0AAD0892075F
:1037600003F0010305F0010506D52BB1486900906F
:1037700088690090009831BDE20611D583B100F050
:1037800032F84A6900920A6842F001020A60009227
:10379000009900F053F900F079F800F03EF831BDDF
:1037A0004B694C684A69002D0DD000F02EF802D507
:1037B000630500D512B1AAB1AA0513D5428D8AB10D
:1037C00000F017F80CE000F01AF802D5630500D5F8
:1037D00012B13AB1AA0505D5428D1AB100F05EF8D2
:1037E00000F058F831BD4A6822F4E0624A6001688E
:1037F0007047426A531C436212780A61704792080C
:103800004D685B0602F00102704792084D681B0686
:1038100002F0010270477047704770477047704769
:1038200080B50168428D032A06D10A6822F48062BD
:103830000A6000F024F81EE0428D022A19D10A68BD
:1038400042F400720A6001684A6822F440724A60D9
:1038500000F015F800F01EF800F026F804D100F092
:1038600015F8FFF7DCFF08E000F010F8FFF7D4FFD1
:1038700003E000F013F800F00DF8002002BD416AEB
:103880004A1C4262026812690A707047012180F87E
:1038900035107047418D491E41857047426A531C5F
:1038A0004362096911707047416A4A1C42620268AA
:1038B00012690A70418D491E418590F835104229E0
:1038C00070472B4600224FF001117047016841F408
:1038D0008061016070472DE9F041044682B02068A4
:1038E000884600F03EF8089F1E463B46FFF7EAFF79
:1038F00000F035F830BB216808F0FE0008613A4658
:103900004C4900F027F820B1A06B04281AD10120FF
:103910001EE02068DFF82081416900913B46806904
:10392000009000220098414600F019F850B9012E8D
:103930000AD02168280A08613B460022414600F06F
:103940000EF808B1032003E02068EDB20561002005
:10395000BDE8F6812046BFE04346002249462046A6
:1039600072E0016841F480710160154670472DE9ED
:10397000F047044682B020688846FFF7A7FF164646
:10398000FFF77EFE1F460A9DFFF79BFFFFF7E7FF4D
:10399000002840D12168DFF89C9008F0FE00086103
:1039A0002A464946FFF7D6FF00282FD12068DFF8C6
:1039B00088A0416900912B46806900900022009800
:1039C0005146FFF7CCFF002825D1012F08D02168F0
:1039D000300A08612B4600225146FFF7C0FFD0B9DC
:1039E0002068F6B206612B4600225146FFF7B7FF6A
:1039F00088B900F014F870B9216848F00100C0B22D
:103A000008612A464946FFF7A5FF28B1A06B0428A4
:103A100008BF012000D00320BDE8F6870000206821
:103A2000016841F4807101602B4600224FF00111C2
:103A3000204609E0020001008000010001680A68D8
:103A400022F480620A6070472DE9F84304460D466F
:103A500091461E462F02FFF75EFC3F0EB9F1000FA4
:103A6000804616D12068012F05D100F029F805D134
:103A70000020BDE8F28300F029F8F9D016F1010F1B
:103A8000F0D0D6B1FFF747FCA0EB08008642E9D2A0
:103A900013E02068012F03D100F012F803D0E7E70C
:103AA00000F014F8E4D116F1010FF2D02EB1FFF7B7
:103AB00032FCA0EB08008642EBD200F044F8D8E7D5
:103AC0004069284080B2A9B2884270478069284086
:103AD00080B2A9B288427047F8B504460D46164632
:103AE000FFF719FC07462902090E2068012916D1A3
:103AF0004169294089B2AAB2914216D0416949056B
:103B000015D500F02DF800F027F804F13400042159
:103B1000416001214170002101700120F2BD8169E5
:103B2000294089B2AAB29142E8D10020F2BD16F133
:103B3000010FD8D026B1FFF7EEFBC01B8642D2D2D0
:103B400000F001F8F2BD04F13400012141700021C0
:103B5000017003207047416921F480614161704721
:103B6000016841F4007101602068416970470000FC
:103B70002DE9F8474FF0000E0022614BDFF88481F9
:103B8000DFF884914FF00F0A012707FA02F60F6859
:103B90003740B74240F0AA804C685CB3012C1AD081
:103BA000022C1FD0032C31D0112C17D0122C1DD079
:103BB000564DAC421CBF564DAC421BD0554DAC428D
:103BC0001CBF554DAC4215D0544DAC421CBF544D9A
:103BD000AC420FD01CE0D1F80CE019E0CC6804F145
:103BE000040E15E0CC6804F1080E11E0CC6804F175
:103BF0000C0E0DE08C6814B94FF0040E08E0012C97
:103C00004FF0080E14BF4661066101E04FF0000E50
:103C1000FF2F02D88446940004E0A2F1080400F1CA
:103C2000040CA400DCF800500AFA04F6B5430EFABE
:103C300004F42C43CCF800404C68E40056D5D9F885
:103C4000004044F00104C9F800404FEA920CD9F852
:103C5000005005F001040094009C58F82C5002F02C
:103C60000304A4000AFA04F6B5432E4EB04208BF7E
:103C7000002618D02C4EB04208BF012613D02B4E80
:103C8000B04208BF02260ED0294EB04208BF03261C
:103C900009D0284EB04208BF042604D0264EB042B8
:103CA0000CBF0526062606FA04F42C4348F82C40DF
:103CB000FE434C68E4031C684CBF3C4334401C602A
:103CC0004C68A4035C684CBF3C4334405C604C6867
:103CD000E4029C684CBF3C4334409C604C68A402A6
:103CE00047BFDC682743DF683740DF60521C102A7B
:103CF000FFF44AAFBDE8F18702B9090401617047DA
:103D0000000401400800014018100240000011109A
:103D100000001210000021100000221000003110DD
:103D20000000321000080140000C0140001001406A
:103D30000014014000180140001C014010B50400AF
:103D400001D1012010BD94F8510010B9204601F0B6
:103D500010FD022084F851002068016821F0400124
:103D600001606068A1680843E1680843216908436D
:103D700061690843A16901F400710843E1690843DE
:103D8000216A0843A16A084321680860A069616A42
:103D9000000C00F004000843216848602168E06AD4
:103DA00008612068C16921F40061C16100200A49ED
:103DB00008706065012084F85100002010BD06499C
:103DC000097839B100680549884202BF0448006893
:103DD000002800D001207047C20A002000380040AF
:103DE0001438004038B5040001D1012032BD00F084
:103DF0001BF818B92870204601F0ECFC0AE00068B6
:103E0000C16841F00101C160016841F00101016038
:103E10000020704702206870211D206800F01EF904
:103E200001206870002032BD04F1380568787047C1
:103E300010B5044620680169890716D5C16889074D
:103E400013D56FF00201016101212176806910F024
:103E5000030F204602D000F0FEF804E000F0FAF86C
:103E6000204600F0F9F80020207620680169490713
:103E700016D5C168490713D56FF00401016102210D
:103E80002176806910F4407F204602D000F0E3F8EC
:103E900004E000F0DFF8204600F0DEF80020207695
:103EA00020680169090716D5C168090713D56FF0A5
:103EB0000801016104212176C06910F0030F20463A
:103EC00002D000F0C8F804E000F0C4F8204600F08A
:103ED000C3F80020207620680169C90616D5C1689C
:103EE000C90613D56FF01001016108212176C06960
:103EF00010F4407F204602D000F0ADF804E000F05E
:103F0000A9F8204600F0A8F8002020762068016972
:103F1000C90708D5C168C90705D56FF0010101615E
:103F2000204601F091FD20680169090608D5C168A5
:103F3000090605D56FF080010161204600F02EF9D9
:103F400020680169490608D5C168490605D56FF0A2
:103F500040010161204600F080F82068016989066F
:103F60000AD5C168890607D56FF020010161204696
:103F7000BDE8104000F011B910BD012020700220F2
:103F80006070704738B500F05AF801D1022032BD98
:103F9000FFF7F3FFDFF83431286882681A40826047
:103FA0000868002837D0102837D0202837D030288C
:103FB00037D040282BD050281ED0602820D0702821
:103FC0000BD0B0F5805F03D0B0F5005F0CD02CE0D3
:103FD00028688168C908C9000CE000F02BF828683F
:103FE000816841F0770105E000F024F828688168D5
:103FF00041F48041816018E000F018F8502111E090
:10400000CA684968286800F07EF860210AE000F07C
:104010000DF8402106E0002104E0102102E02021FB
:1040200000E03021286800F080F80EE0CA68496896
:10403000286857E0CB684A68896828687DE00546AB
:1040400005F13804207801287047012060700020B5
:10405000207032BD7047704770477047F0B51C4FF5
:104060001C4E02681C4B1D4C1D4DB84218BFB0427F
:1040700008D0B0F1804F18BFA84203D0A04218BFAB
:1040800098420FD1D1F804C0B84222F0700218BF94
:10409000B0424CEA020207D0B0F1804F1CBFA842E8
:1040A000A04201D0984203D1CB6822F440721A4357
:1040B0000260B8428A68C2620A68826212BFB04275
:1040C0000969016301214161F0BD00008800FFFF23
:1040D000002C014000340140000C0040000800406A
:1040E0000004004010B5036A046A640864000462B6
:1040F000846924F0F00444EA0212826123F00A0287
:104100001143016210BD10B5036A23F0100303626E
:104110008369046A23F4704343EA0232826124F023
:10412000A00242EA0111016210BD826822F0700211
:10413000114341F007018160704710B5846824F491
:104140007F442143114341EA0321816010BD0000F7
:1041500030B500F138021378012B01D1022030BDB7
:10416000012313700223537003685C6824F0700409
:104170005C6003685C680D682C435C6003689C6845
:1041800024F080049C60006883684968194381605A
:10419000012050700020107030BD70477047000043
:1041A00038B50446DFF8545206E0142301222146B4
:1041B0002846FEF752FE641C20780028F5D131BD58
:1041C00001460720FDF73BBF80B5012200A93D2035
:1041D00055E010B5044621463D20FDF730FF002C88
:1041E000BDE810400CBF13200720FDF726BF0C20B0
:1041F000EFE780B520213F20FDF721FFBDE8024019
:104200004FF42F70FDF719BF10B582B0FFF7F1FF23
:1042100000F02FF8FDF73BFF9DF80000A02811D01B
:104220004FF4FA60FDF709FF754C9DF800200FF27E
:104230000821204600F030F92046FFF7B1FF714910
:104240000020087000F020F800213F20FDF7F7FE65
:104250000A20FDF7F2FE01213F20FDF7F0FE0A20C3
:10426000FDF7EBFE0020FFF7B4FF0A20FDF7E5FEA7
:1042700013BD00208DF80000012200A97047FDF752
:1042800006FF9DF8000002BD002099E730B58DB013
:104290000446FFF799FF05460020FFF79AFFFFF756
:1042A000F3FF162200A95520FDF7F1FE062200A912
:1042B00009A8FDF7E7F806220DF106010DF11E0031
:1042C000FDF7D0F8062203A906A8FDF7DBF80DF1EB
:1042D00012000BA900F00FF805A80DF12A0100F05B
:1042E0000AF82846FFF775FF204606A91622FDF7B3
:1042F000B9F80DB030BD02780A7042784A70704744
:104300002DE9F04782468AB00C46FFF7BDFFE4B2C4
:104310002546202D0FF260183B4E00AF29D1082210
:1043200000A92020FDF7B3FE3089FDF79DFA044671
:104330000D4600F071F800F074F800F069F8CDE96E
:104340000201F878B97800F06FF800F061F8CDE973
:1043500004017879397900F067F800F059F8CDE96F
:1043600006019DF80700B97900F05EF822462B4659
:1043700037E0062200A92046FDF789FE00240E2D15
:10438000DFF8889001D1F0880DE0082D1CBF282DA2
:104390002E2D01D1308806E0142D01D1708802E065
:1043A0001A2D04D1B088FDF75FFA0446894600F063
:1043B00033F800F036F822464B46FDF7F5FBCDE921
:1043C0000401F878B97800F02FF822464B46FDF743
:1043D000EBFBCDE906017879397900F025F8224622
:1043E0004B46FDF7E1FBCDE908012022504602A92A
:1043F000FDF748F80AB0BDE8F08700001C0800206F
:10440000700A00209C090020DC0900200000F03F19
:1044100022462B46FDF7C8BB02A841462022FDF7E5
:1044200031B878789DF8001041EA002000B2FDF71D
:1044300011BA1A2164E7000043616E27742066698F
:104440006E6420424E4F3035352C2069643A20305E
:1044500078253032782E20506C6561736520636852
:1044600065636B20796F757220776972696E672E4C
:104470000D0A000000000000000000000000000025
:10448000000000000000000000000000000000002C
:1044900000000000000000000CB41CB5044604A895
:1044A00001900A46009401AB00A9074878441830EF
:1044B000FBF73EFE009A0021117000285CBF0098B7
:1044C000001B16BC5DF80CFB63CEFFFF70B582B01D
:1044D00000F06EF904F150061D467078012840F096
:1044E0009280002918BF002A2DD03078012800F0D2
:1044F0008A80012030702220707000207060A064DB
:10450000E06400F0B6F904D12068036823F4804326
:10451000036000F02AFA09D12068036823F40053ED
:1045200003602068036843F40053036000F021FA3D
:1045300004BFA068002807D13070134600950A46D2
:10454000204600F062F876BD00F072F970B904E020
:1045500000F026FAA8B900F041F9E08F0228F7DA56
:1045600007E000F01DFA60B900F06CF9E08F022856
:10457000F7DA00F0FAF901D100F045F900F010FA8D
:1045800008B1032076BDE06810B900F016F901E02B
:1045900000F046F9E08F401EE08700F0E6F909D10F
:1045A00000F0FEF920B1706840F002007060E8E7AA
:1045B00000F02FF900F0DDF906D100F0D2F918BFB4
:1045C000B0F5806F00F0E4F90120707000F0CDF9D3
:1045D00016D120688068C00612D52046FFF7EFFB91
:1045E000012809D1706840F00200706000F0C5F940
:1045F00000203070012076BD21686FF010008860C7
:104600000020307076BD022076BD70B582B000F01B
:10461000CFF800F03EF91CBF6878222840F0C68031
:1046200000291CBF002A002B00F0BB80287801283D
:1046300000F0BC80012028706878012804BF322077
:10464000687000F020F9A263A387E3872163A38643
:10465000E38600F023F900F0EBF8069EB0F5006F5A
:10466000606834D128B1B0F5827F04BFE08E0128A4
:1046700001D100F0BDF8E08E00281AD100F075F9E4
:104680001DD100F0C0F81AE033460022022100F0EC
:104690008AF900284ED100F0ABF880B2002804BFA0
:1046A000A06AB0F5005F00F0D8F8002842D100F011
:1046B000C9F8E08E0028E7D16068002841D1334670
:1046C00000F06FF9002835D100F0AAF836E028B1E3
:1046D000B0F5827F04BFE08E012801D100F074F8AC
:1046E000E08E00281DD100F040F900F0B6F8002857
:1046F00020D12068C068A16B08701FE033460022FB
:10470000022100F050F9A8B900F05EF880B200284C
:1047100004BFA06AB0F5005F00F09FF850B900F048
:104720005DF8E08E0028E9D1606850B9334600F0AA
:1047300038F908B1032076BD00F03FF8E08F401E45
:10474000E08700F012F90AD1334600F02AF920B1CF
:10475000686840F002006860ECE700F05AF8334601
:104760000122802100F01FF918B1686840F01000A4
:10477000F1E70120687000F0F8F814D12068816832
:10478000C90610D5696841F002016960016821F429
:10479000005101602068016841F40051016000206F
:1047A0002870012076BD0020287076BD022076BDDD
:1047B00004460020ADF800007047A06B411CA163C7
:1047C0002168C96801707047206B411C2163216812
:1047D0000078C860E08E401EE0867047A06B411CE8
:1047E000A1632168C9680170E08F401EE0877047AF
:1047F000206B21680088C860206B801C2063E08EDD
:10480000401EE08670472068016841F480510160D5
:1048100070472068C068ADF80000BDF80000704720
:104820002068C068A16B0880A06B801CA0637047E3
:1048300020680168490603D4016841F04001016025
:10484000E06870472068C068A16B0880A06B801C7E
:10485000A063E08F401EE087704704D120680168A4
:1048600041F480510160334600220121204600F0CE
:104870009CB82063A086E086A163A287E287A06837
:10488000B0F5004F704700206860A064E064704796
:10489000044604F15005687801287047A06AB0F515
:1048A000005F09D12068016821F40051016020688F
:1048B000016841F400510160704780B501684A68A1
:1048C000520609D58A68D20706D58A68520603D4EB
:1048D000BDE80440816C08474A68120606D58A681C
:1048E000920703D5BDE80440C16C08474A689206A8
:1048F00035D58A68D20606D5426D42F0020242657D
:104900006FF010028A6001688A6892060BD5426DCA
:1049100042F0010242658A6800920A6822F0400271
:104920000A600092009901688A6852060CD590F8D6
:104930005120122A08D0426D42F004024265CA6832
:1049400000928A680092009A426D42B14A6822F051
:10495000E0024A60012180F8511000F001F801BD29
:104960007047A068B0F5004F7047A06AB0F5005FCF
:1049700070476068B0F5827F70472068016821F455
:10498000005101602068016841F4005101607047E6
:1049900004D12068016821F04001016070470000E7
:1049A0002B46002201212046FFE72DE9F041044675
:1049B0000D4690461E46FEF7AEFCB8F1000F0746C6
:1049C0000ED1206880682840A84228D016F1010F37
:1049D000F7D09EB1FEF79FFCC01B8642F1D20DE0DE
:1049E000206880682840A84219D116F1010FF7D03D
:1049F00026B1FEF790FCC01B8642F1D220684168C8
:104A000021F0E001416000F00DF8FFF747FF04F1ED
:104A100050000121417000210170032000E00020BE
:104A2000BDE8F0812068016821F040010160704715
:104A300010B500220FF2901303E010F8014B624012
:104A4000D25C0C46611EE4B2002CF6D1104610BDBB
:104A50002DE9F04186B00446642002900D46032003
:104A60000190904603A8009001232A4661002D483A
:104A7000FEF72AFD61006000491C8DF8100003AFAD
:104A800004A8817045709DF80C10C17005217E78D6
:104A90008DF81460FFF7CCFF9DF80C1041EA062654
:104AA000B978884218BF0026B8F1010F07D10190EC
:104AB000009133462A462146012000F017F830467F
:104AC00006B0BDE8F08180B50022FFF7C1FFFCF71A
:104AD000CBFE154A154BFCF795FF4FF06632144B91
:104AE000FDF726FABDE8044001F004B830B585B002
:104AF0000400099D0F4806D10193009202950B46D0
:104B00000FF2340209E0012C0AD1089C01930092B3
:104B1000039502940B460FF26002802101F032F8F7
:104B200005B030BDA00900207B14AE47E17A943F68
:104B3000661271C0F009002057204465763A203093
:104B400078253032582C205265673A20307825304D
:104B500032582C20446174613A2030782530345822
:104B60002C20435243385F63616C633A30782530C0
:104B700032580D0A0000000052204465763A203079
:104B800078253032582C205265673A20307825300D
:104B900032582C20446174613A20307825303458E2
:104BA0002C20435243385F696E3A307825303258B2
:104BB0002C20435243385F63616C633A3078253070
:104BC00032580D0A0000000000070E091C1B1215C8
:104BD000383F363124232A2D70777E796C6B6265DD
:104BE000484F464154535A5DE0E7EEE9FCFBF2F5CD
:104BF000D8DFD6D1C4C3CACD90979E998C8B8285BD
:104C0000A8AFA6A1B4B3BABDC7C0C9CEDBDCD5D2AC
:104C1000FFF8F1F6E3E4EDEAB7B0B9BEABACA5A29C
:104C20008F88818693949D9A2720292E3B3C35328C
:104C30001F18111603040D0A5750595E4B4C45427C
:104C40006F68616673747D7A898E878095929B9C6C
:104C5000B1B6BFB8ADAAA3A4F9FEF7F0E5E2EBEC5C
:104C6000C1C6CFC8DDDAD3D4696E676075727B7C4C
:104C700051565F584D4A4344191E171005020B0C3C
:104C800021262F283D3A33344E49404752555C5B2C
:104C90007671787F6A6D64633E39303722252C2B1C
:104CA0000601080F1A1D1413AEA9A0A7B2B5BCBB0C
:104CB0009691989F8A8D8483DED9D0D7C2C5CCCBFC
:104CC000E6E1E8EFFAFDF4F30DB400B582B004A814
:104CD00000900A4600AB03A9034878440A3000F06C
:104CE00091FF06BC5DF810FBBFC5FFFF5FF0FF0C36
:104CF0001CEAD05114BF614506E0C110400721F005
:104D0000E04101F16051704779B900F000410002C3
:104D10000AD0B0FA80FC00FA0CF001F16051A1EB6E
:104D20000C5101EBD0214005704741020CBF40F40B
:104D3000E0016FF000010020704700002DE9F8430A
:104D4000044641F289382078DFF83865C00750D52D
:104D500000F028FA05D000F02AFA0BD17068C003E1
:104D600008D500F05CF9002843D06068002840D1E5
:104D7000012047E1306800F056F93060FEF7CBFAC9
:104D8000054600F04CF928B1FEF7C5FA401B404536
:104D9000F7D334E16068B0F5803F09D008B93068D6
:104DA0000AE0B0F5A02F306806D140F480203060D2
:104DB000306840F4803001E000F035F93060606820
:104DC00058B1FEF7A8FA054600F029F988B9FEF7B0
:104DD000A2FA401B4045F7D311E1FEF79CFA0546C5
:104DE00000F01DF928B1FEF796FA401B4045F7D3B5
:104DF00005E12078DFF89074800716D5706810F010
:104E00000C0F05D000F0D3F926D17068C00323D46D
:104E100000F010F91CBF20690128A9D13068616930
:104E200020F0F80040EAC10030602078000732D559
:104E3000A169DFF8580400294ED001210160FEF776
:104E40006AFA0546706AC0F3400010BBFEF763FAC9
:104E5000401B6528F6D3D2E0206968B10120386094
:104E6000FEF759FA054600F0E5F8D7D1FEF753FAF8
:104E7000401B6528F7D3C2E03860FEF74CFA0546C0
:104E800000F0D8F8D1D0FEF746FA401B6528F7D3DA
:104E9000B5E0FEF743FA207840076CD5F069DFF8FB
:104EA000F09340F08050F061F06900F08050009085
:104EB0000098D9F8000040F48070C9F80000FEF7AF
:104EC0002AFA0546D9F80000C00514D4FEF723FAE3
:104ED000401B6528F6D392E00160FEF71CFA0546F8
:104EE000706AC0F340000028D5D0FEF714FA401BCA
:104EF0006528F5D383E0306A00F086F83062FEF76B
:104F00000AFA0546306AC0F3400028B1FEF703FAFA
:104F1000401B4045F6D372E0E068012808D008B98C
:104F2000306A09E00528306A06D140F0040030629A
:104F3000306A40F0010001E000F066F83062E0689D
:104F400060B1FEF7E8F90546306AC0F3400090B959
:104F5000FEF7E1F9401B4045F6D350E0FEF7DBF9E0
:104F60000546306AC0F3400028B1FEF7D4F9401B73
:104F70004045F6D343E0E069002842D0716801F073
:104F80000C0108293FF4F4AE02282CD100F043F8BC
:104F900005463068C0F3406028B1FEF7BCF9401BFD
:104FA0006528F6D32BE0206AB0F5803F05D1706804
:104FB000A16820F40030084370607068216A20F412
:104FC00074100843616A08437060012000F024F8FF
:104FD00005463068C0F3406098B9FEF79CF9401B65
:104FE0006528F6D30BE000F016F805463068C0F3EC
:104FF000406030B1FEF78FF9401B6528F6D30320DF
:1050000000E00020BDE8F283400840003062306AD2
:1050100020F00400704700203866FEF77CB9306845
:10502000C0F34040704720F480303060306820F496
:10503000802070473068C0F34000002870472DE999
:10504000F843DFF85052DFF83C620446286889468E
:1050500000F00700484541F289383BD200F091F852
:1050600074D100F0A9F873D56068012803D13168C4
:10507000C1F3404104E00228316803D1C1F340612B
:1050800021B963E0C1F3400100295FD000F083F84B
:1050900007466068012808D100F084F858D0FEF770
:1050A0003AF9C01B4045F7D34BE0022808D100F085
:1050B0007EF84DD0FEF72FF9C01B4045F7D340E0F6
:1050C000706810F00C0F43D0FEF725F9C01B404567
:1050D000F6D336E000F070F835D56068012803D1CA
:1050E0003168C1F3404104E00228316803D1C1F3C3
:1050F000406119B92AE0C1F3400139B300F04BF81F
:1051000007466068012808D100F04CF81BD0FEF774
:1051100002F9C01B4045F7D313E0022808D100F084
:1051200046F810D0FEF7F7F8C01B4045F7D308E06B
:10513000706810F00C0F06D0FEF7EDF8C01B40456C
:10514000F6D303201BE000F01CF801D0012016E08C
:105150002078400705D57068E16820F4E0600843D6
:1051600070602078000706D57068216920F46050CF
:1051700040EAC10070600020FEF7B6F80020BDE8EC
:10518000F2832868C00849EAC0002860286800F057
:105190000700484570477168890840EA81007060DF
:1051A000FEF7B9B8706800F00C000428704770680A
:1051B00000F00C00082870472078800705D570683B
:1051C000A16820F0F000084370602078C0077047A5
:1051D00000B585B001A80FF2D0011022FCF752F9FA
:1051E0000FF2D4000088ADF800002B48016801F0F0
:1051F0000C02042A02D0082A03D016E04FF4610002
:1052000014E001AAC1F38343C9039A5C0AD500687C
:1052100000ABC0F340404FF46101C05CB1FBF0F063
:10522000504303E01D48504300E01D4805B000BD59
:1052300080B5FFF7CDFF184B0FF280021B681949AC
:10524000C3F303139A5C20FA02F30B60086802BDF3
:1052500080B5FFF7EDFF00F00EF8C2F3022206E082
:1052600080B5FFF7E5FF00F006F8C2F3C222125C3A
:1052700021FA02F002BD084A126801460FF23C0012
:105280007047000000100240000042428004424289
:1052900000700040002002400410024000093D0060
:1052A00000127A00E8090020020304050607080935
:1052B0000A0B0C0D0E0F1010010200000000000080
:1052C000010203040102030406070809090100287A
:1052D00006D52E4A00F00F00801800F8041C704715
:1052E0002B4A815470472B490A684FF6FF031A4036
:1052F00000F0070042EA0020274A10430860704788
:1053000070B5244B1B68C3F302230124C3F10705C6
:10531000052D2EBF0F2504FA05F56D1E1E1D072E47
:1053200034BF0023DB1E2940994004FA03F3BDE893
:1053300070405B1E1A401143C8E7012100F01F02B4
:105340009140164AFFE7400942F82010704710B517
:10535000401EB0F1807F01D3012010BD104C606071
:105360000F214FF0FF30FFF7B1FF0020A0600720B2
:105370002060002010BD0A49042808680CBF40F0D6
:10538000040020F0040008607047000018ED00E001
:1053900000E400E00CED00E00000FA0500E100E0B0
:1053A00010E000E080B500F001F801BD704700009A
:1053B000002201F071BA0000820707D010F8012B1B
:1053C00011F8013BBAB19A42F6D014E002680B68BA
:1053D0009A42A2F1013301BF934313F0803F50F88A
:1053E000042F51F8043FF3D010F8012B11F8013BC2
:1053F0000AB19A42F8D0D01A7047000010B5FF23C6
:1054000013EAD0541DBF13EAD1529C429A4239E0AC
:10541000A41ADA0780EA0103134042EA012142EAB2
:105420000020421A3CBF641E01EB4202090AB2FB93
:10543000F1FE01FB1E221202B2FBF1F001FB102271
:105440006EF30F201202B2FBF1FE4EEA00207F3411
:1054500006DDFE2C24DA53EA500050EBC45010BD98
:10546000D4F1020401FB1E2240F08071192C1DDCD6
:1054700021FA04F0C4F12004A140114371F100426B
:10548000584110BD9C421ABF03EAD1529A420FE024
:1054900080EA010E0EF00043400004D0490016D10E
:1054A00043F0FF4010BD490008BFD343180010BDB2
:1054B0009C4205D1D21AF7D001F00041484010BDFE
:1054C0004A0212BF0846484000F0004010BD4AB9E9
:1054D0000902B1FA81F2914044B1A418C00140F030
:1054E00000409EE7C90141F0004152420002B0FA7B
:1054F00080F4A040141B94E74100090E7F3915D4B5
:10550000D1F11F0114D4400007D2C00140F0004087
:10551000C84048BF6FF000407047C00140F00040F5
:10552000C8404CBF4FF000404042704700207047D9
:1055300000424FF0004058BFC0437047002840F180
:105540000780F446404200F003F850F00040604706
:105550000AD0B0FA80F18840D1F19D01C905020658
:1055600072F1004241EB10207047000090EA010FF9
:1055700044BF81F0004100F075B800BF431A4FF0FE
:1055800000423EBF5340C01AC91800BFD3095FEAAA
:10559000D05C13EB400F34BFB3EB410F40E07CEB2A
:1055A000D1530CD342EA012122D8D1EB402009D3B8
:1055B000400A28BF5FEA500140EBCC507047401AC8
:1055C00015D04002B0FA80F2521C9040400A4FEAD7
:1055D0003C23B3EB026384BF00EB730007E040F4AD
:1055E00000001A16DB07C2F10102D04018437047D1
:1055F000182BFCDC31FA03F202FA03F3591A38BF14
:1056000042F00102D2EB40203CBF4000ACF1010C63
:105610005FEACC5CC20572F100414CEB5020704750
:1056200013EB400F0FD24B0009D0ACEBD153022B40
:1056300003DB4902172BDDDD70479143401A43001D
:10564000D5D10020704713EB410FD0D36FF000008D
:105650007047000090EA010F44BF81F00041FFF75E
:105660008DBF00BF421A3CBF801A89184FF0004C12
:10567000C0F3C752FF2A24D0C1F3C75313B3D21AC1
:10568000D2F1190327DD4CEA01214CFA03F321EA98
:105690000303D140C20D4CEA0020401834BF20EA79
:1056A0000C004CEA5000D20553EA006373EB0C0C7B
:1056B00052EB1020420012F1807F38BF7047C00DBE
:1056C000C0057047490212BF9A4200EB5120F8E72B
:1056D000D2F11703D9D5704780B58E48016841F0E3
:1056E00001010160006800F00100009000980320B3
:1056F000FFF7F9FDBDE80840002200214FF0FF3020
:10570000FFF7FEBD10B586B00168834A834C84481C
:1057100091420CD1C02100F024F8206840F4001020
:105720002060206800F400100090009817E07D4A87
:10573000914214D14FF4406100F013F8206840F416
:10574000800020600022206800F480000090042186
:1057500000982120FFF7D4FD2120FFF7EEFD06B0D1
:1057600010BD0191122102910321049101A9FEF7BC
:10577000FFB900686C49884200D0704710B5654891
:105780006A4C86B0016841F48051016001A900684B
:1057900000F4805000900098A02000F013F8402002
:1057A000019001A90020029003902046FEF7E0F945
:1057B000002206212320FFF7A3FD2320FFF7BDFDD4
:1057C00006B010BD019002200290032004902046F4
:1057D000FEF7CEB980B50068B0F1804F13D14F48C5
:1057E000016841F0010101600022006800F0010041
:1057F0000090002100981C20FFF782FDBDE80240C8
:105800001C20FFF79ABD01BD30B585B00168484A3C
:105810004048484C91424FF4806517D1416841F4AB
:105820000021416001A9406800F400200090009828
:105830000195FFF7C8FF4FF4006000F062F8002206
:1058400001213420FFF75CFD342042E03A4A9142C6
:105850001ED1416841F48011416001A9406800F403
:105860008010009000984FF48050FFF7ABFF0420A9
:10587000019001A900200290012003902F48FEF71B
:1058800077F9002202213520FFF73AFD352020E08C
:105890002B4A264C91421FD1016841F4804101609E
:1058A00001A9006800F48040009000984FF4007057
:1058B000FFF788FF0020029001950120039001A9C5
:1058C0002046FEF755F9002200212520FFF718FD9C
:1058D0002520FFF732FD12E01A4A91420FD14168AC
:1058E00041F40031416001A9406800F400300090AB
:1058F00000980420FFF766FF082000F002F805B0CA
:1059000030BD019001A900200290012003902046A3
:10591000FEF72EB918100240005400401C1002403F
:10592000000C0140005800400030014000080140D8
:10593000004C0040001001400050004000140140A5
:105940000038014000440040012100F01F02914056
:105950004D4A400942F82010704780B5FDF7D6FC4B
:10596000BDE80140FFF71EBD4848FEF761BA484850
:10597000FDF78CBE4748FEF7A0BF80B54648FDF74F
:1059800018FB46484649006808702520FFF7DCFFF1
:105990004448454A01681268491C02F10A038B42D7
:1059A000B8BF00218A42B8BF9942016002DA3F497C
:1059B0000120087001BD10B53D483E4CFDF7F9FAD5
:1059C00020683D4908703420FFF7BEFF3B4801784E
:1059D000012912D13A493B4B0A682468D454521C1D
:1059E0000A60D21812F8012C3B2A06D1002202705C
:1059F0000120354A10700020086010BD38B53348CA
:105A0000334CFDF7D6FA20682B4908703520FFF794
:105A10009BFF30480178012914D12F49294B0A688E
:105A20002468D518521C85F821400A60D21892F8D3
:105A300020203B2A06D1002202700120274A107044
:105A40000020086031BD70470068B0F1804F19D167
:105A500023480168491C016022490A68521C0A60F7
:105A60004268521C42604868401C48601E480168F9
:105A7000491C01601D480168491C01601C480168FF
:105A8000491C01607047000080E200E03006002001
:105A900034050020DC040020F0050020043801401B
:105AA000C10A0020CC0A0020AC760008B301002017
:105AB00070050020044C0040C30A0020B7010020FC
:105AC000AC060020B8060020B8010020B005002078
:105AD00004500040B9010020B0060020BA010020A7
